:020000040000fa
:080000000002040000000000f2
:020000040000fa
:04000800f0050000ff
:020000040000fa
:04000c0010060000da
:020000040000fa
:0400100030060000b6
:020000040000fa
:04001400ba06000028
:020000040000fa
:04001800500600008e
:020000040000fa
:04001c00ce0600000c
:020000040000fa
:040020007006000066
:020000040000fa
:04002400ce06000004
:020000040000fa
:04002800ce06000000
:020000040000fa
:04002c00b603000017
:020000040000fa
:04003000ce060000f8
:020000040000fa
:04003400ce060000f4
:020000040000fa
:04003800ce060000f0
:020000040000fa
:04003c00ce060000ec
:020000040000fa
:04004000ce060000e8
:020000040000fa
:04004400ce060000e4
:020000040000fa
:04004800ce060000e0
:020000040000fa
:04004c00ce060000dc
:020000040000fa
:04005000ce060000d8
:020000040000fa
:04005400b2040000f2
:020000040000fa
:04005800600500003f
:020000040000fa
:04005c00ce060000cc
:020000040000fa
:04006000ce060000c8
:020000040000fa
:04006400ce060000c4
:020000040000fa
:04006800ce060000c0
:020000040000fa
:04006c00ce060000bc
:020000040000fa
:04007000ce060000b8
:020000040000fa
:04007400ce060000b4
:020000040000fa
:04007800ce060000b0
:020000040000fa
:04007c00ce060000ac
:020000040000fa
:04008000ce060000a8
:020000040000fa
:04008400ce060000a4
:020000040000fa
:04008800ce060000a0
:020000040000fa
:04008c00ce0600009c
:020000040000fa
:04009000ce06000098
:020000040000fa
:04009400ce06000094
:020000040000fa
:04009800ce06000090
:020000040000fa
:04009c00ce0600008c
:020000040000fa
:0400a000ce06000088
:020000040000fa
:0400a400ce06000084
:020000040000fa
:0400a800ce06000080
:020000040000fa
:0400ac00ce0600007c
:020000040000fa
:0400b000ce06000078
:020000040000fa
:0400b400ce06000074
:020000040000fa
:0400b800ce06000070
:020000040000fa
:0400bc00ce0600006c
:020000040000fa
:0400c000ce06000068
:020000040000fa
:0400c400ce06000064
:020000040000fa
:0400c800ce06000060
:020000040000fa
:0400cc00ce0600005c
:020000040000fa
:0400d000ce06000058
:020000040000fa
:0400d400ce06000054
:020000040000fa
:0400d800ce06000050
:020000040000fa
:0400dc00ce0600004c
:020000040000fa
:0400e000ce06000048
:020000040000fa
:0400e400ce06000044
:020000040000fa
:0400e800ce06000040
:020000040000fa
:0400ec00ce0600003c
:020000040000fa
:0400f000ce06000038
:020000040000fa
:0400f400ce06000034
:020000040000fa
:0400f800ce06000030
:020000040000fa
:0400fc00ce0600002c
:020000040000fa
:04010000ce06000027
:020000040000fa
:04010400ce06000023
:020000040000fa
:04010800ce0600001f
:020000040000fa
:04010c00ce0600001b
:020000040000fa
:04011000ce06000017
:020000040000fa
:04011400ce06000013
:020000040000fa
:04011800ce0600000f
:020000040000fa
:04011c00ce0600000b
:020000040000fa
:04012000ce06000007
:020000040000fa
:04012400ce06000003
:020000040000fa
:04012800ce060000ff
:020000040000fa
:04012c00ce060000fb
:020000040000fa
:04013000ce060000f7
:020000040000fa
:04013400ce060000f3
:020000040000fa
:04013800ce060000ef
:020000040000fa
:04013c00ce060000eb
:020000040000fa
:04014000ce060000e7
:020000040000fa
:04014400ce060000e3
:020000040000fa
:04014800ce060000df
:020000040000fa
:04014c00ce060000db
:020000040000fa
:04015000ce060000d7
:020000040000fa
:04015400ce060000d3
:020000040000fa
:04015800ce060000cf
:020000040000fa
:04015c00ce060000cb
:020000040000fa
:04016000ce060000c7
:020000040000fa
:04016400ce060000c3
:020000040000fa
:04016800ce060000bf
:020000040000fa
:04016c00ce060000bb
:020000040000fa
:04017000ce060000b7
:020000040000fa
:04017400ce060000b3
:020000040000fa
:04017800ce060000af
:020000040000fa
:04017c00ce060000ab
:020000040000fa
:04018000ce060000a7
:020000040000fa
:04018400ce060000a3
:020000040000fa
:04018800ce0600009f
:020000040000fa
:04018c00ce0600009b
:020000040000fa
:04019000ce06000097
:020000040000fa
:04019400ce06000093
:020000040000fa
:04019800ce0600008f
:020000040000fa
:04019c00ce0600008b
:020000040000fa
:0401a000ce06000087
:020000040000fa
:0401a40080030000d4
:020000040000fa
:0401a800ce0600007f
:020000040000fa
:0401ac00ce0600007b
:020000040000fa
:0401b000ce06000077
:020000040000fa
:0401b400ce06000073
:020000040000fa
:0401b800ce0600006f
:020000040000fa
:0401bc00ce0600006b
:020000040000fa
:0401c000ce06000067
:020000040000fa
:0401c400ce06000063
:020000040000fa
:0401c800ce0600005f
:020000040000fa
:0401cc00ce0600005b
:020000040000fa
:0401d000ce06000057
:020000040000fa
:0401d400ce06000053
:020000040000fa
:0401d800ce0600004f
:020000040000fa
:0401dc00ce0600004b
:020000040000fa
:0401e000ce06000047
:020000040000fa
:0401e400ce06000043
:020000040000fa
:0401e800ce0600003f
:020000040000fa
:0401ec00ce0600003b
:020000040000fa
:0401f000ce06000037
:020000040000fa
:0401f400ce06000033
:020000040000fa
:0401f800ce0600002f
:020000040000fa
:0401fc00ce0600002b
:020000040000fa
:04020000ce06000026
:020000040000fa
:04020400ce06000022
:020000040000fa
:04020800ce0600001e
:020000040000fa
:04020c00ce0600001a
:020000040000fa
:04021000ce06000016
:020000040000fa
:04021400ce06000012
:020000040000fa
:04021800ce0600000e
:020000040000fa
:04021c00ce0600000a
:020000040000fa
:04022000ce06000006
:020000040000fa
:04022400ce06000002
:020000040000fa
:04022800ce060000fe
:020000040000fa
:04022c00ce060000fa
:020000040000fa
:040230009005000035
:020000040000fa
:04023400c005000001
:020000040000fa
:04023800ce060000ee
:020000040000fa
:04023c00ce060000ea
:020000040000fa
:04024000ce060000e6
:020000040000fa
:04024400ce060000e2
:020000040000fa
:04024800ce060000de
:020000040000fa
:04024c00ce060000da
:020000040000fa
:04025000ce060000d6
:020000040000fa
:04025400ce060000d2
:020000040000fa
:04025800ce060000ce
:020000040000fa
:04025c00ce060000ca
:020000040000fa
:04026000ce060000c6
:020000040000fa
:04026400ce060000c2
:020000040000fa
:04026800ce060000be
:020000040000fa
:04026c00ce060000ba
:020000040000fa
:04027000ce060000b6
:020000040000fa
:04027400ce060000b2
:020000040000fa
:04027800ce060000ae
:020000040000fa
:04027c00ce060000aa
:020000040000fa
:04028000ce060000a6
:020000040000fa
:04028400ce060000a2
:020000040000fa
:04028800ce0600009e
:020000040000fa
:04028c00ce0600009a
:020000040000fa
:04029000ce06000096
:020000040000fa
:04029400ce06000092
:020000040000fa
:04029800ce0600008e
:020000040000fa
:04029c00ce0600008a
:020000040000fa
:0402a000ce06000086
:020000040000fa
:0402a400ce06000082
:020000040000fa
:0402a800ce0600007e
:020000040000fa
:0402ac00ce0600007a
:020000040000fa
:0402b000ce06000076
:020000040000fa
:0402b400ce06000072
:020000040000fa
:0402b800ce0600006e
:020000040000fa
:0402bc00ce0600006a
:020000040000fa
:0402c000ce06000066
:020000040000fa
:0402c400ce06000062
:020000040000fa
:0402c800ce0600005e
:020000040000fa
:0402cc00ce0600005a
:020000040000fa
:0402d000ce06000056
:020000040000fa
:0402d400ce06000052
:020000040000fa
:0402d800ce0600004e
:020000040000fa
:0402dc00ce0600004a
:020000040000fa
:0402e000ce06000046
:020000040000fa
:0402e400ce06000042
:020000040000fa
:0402e800ce0600003e
:020000040000fa
:0402ec00ce0600003a
:020000040000fa
:0402f000ce06000036
:020000040000fa
:0402f400ce06000032
:020000040000fa
:0402f800ce0600002e
:020000040000fa
:0402fc00ce0600002a
:020000040000fa
:04030000ce06000025
:020000040000fa
:04030400ce06000021
:020000040000fa
:04030800ce0600001d
:020000040000fa
:04030c00ce06000019
:020000040000fa
:04031000ce06000015
:020000040000fa
:04031400ce06000011
:020000040000fa
:04031800ce0600000d
:020000040000fa
:04031c00ce06000009
:020000040000fa
:04032000ce06000005
:020000040000fa
:10040000ef1a21000eff24000e01880000002000da
:100410000000e000020032000001200020028800fd
:1004200014000700670207000000e00003003a0024
:1004300020562200010020000200370000002000aa
:1004400001002000810f70004220ae000f00070065
:10045000000020000000e0004220ae00000002008a
:100460000000000022250200000000000040da0029
:100470000000fe00200020000000e000020032002a
:10048000100020009001880000000600a1028800f2
:10049000800478000000eb001f003700e284440075
:1004a00054a0b4009905ba00e284440054a0b400fa
:1004b0009906ba00e284440054a0b4000006eb00a0
:1004c000476fde00fd07b200ae018800636ce100fb
:1004d00003003a000ad801000000eb000e003700cc
:1004e000606ce10008003a00004deb000a05e800ee
:1004f000020039003420ec000af0a0008b05e9006e
:10050000f9ff3e00040037006168e100010032009d
:100510000086eb000b00070019c7ba001905ba00e6
:100520000e04e00003003a000a00e000dbff3a009e
:1005300000000600fe07b200ae0288008a047800c0
:10054000f5ff37000cd0a300e20f4d001c0039006e
:1005500089027800354dba000a05e800020039002a
:100560003420ec000af0a0008b05e9000f003200f7
:10057000254dba000a05e800020039003420ec00dd
:100580000af0a0008b05e900080032000c00e00032
:100590000600320015cdba000a05e8000200390055
:1005a0003420ec000af0a0008b05e9008984e80003
:1005b00054a0b4000b00e000e2ff3a000000060087
:1005c0009902ba00055d78008b05e900f7ff32005b
:1005d000c82ade00055d78008b05e900f3ff3200d4
:1005e0000c00e000f1ff320019ddba00eeff370029
:1005f00004082000010037000002eb006100e10068
:1006000001003200100005003200f8003400f8004c
:1006100081027800930188003200be000100e000f2
:100620000c0032000470a70000f0a0003203780034
:10063000c733de00848343004220af008703e80015
:10064000a7018800f607b2007f30e1000400320005
:10065000200020003400f9003200f90000000600fc
:100660008100e9000500e00003003a000180090074
:1006700032100300e8ff37000180090032900300c8
:10068000d561ae00e4ff370030002000f1ff3700f5
:1006900050052000b00e8800a00a2000b00e88008f
:1006a000d3e1a8000000060050052000b00e88002d
:1006b000a00a2000b00e8800d3e1a90000000600c7
:1006c000000000000000000000000000000000002a
:1006d000000000000000000000000000000000001a
:1006e000000000000000000000000000000000000a
:1006f00000000000000000000000000000000000fa
:100700003600f800809fbe00829fbe00849fbe001e
:10071000869fbe003200f8003400f8001000200070
:10072000a00188001000200000d0fe000000fa00a8
:10073000a060800080818800400020006f0b0700cf
:10074000092ba8000be8a9000080fa003400f9008a
:100750003200f9004f03be004f02be004f01be0041
:100760004f00be003600f900004006003600f800d9
:10077000809fbe00829fbe00849fbe00869fbe00f9
:100780003200f8003400f80010002000a0018800ba
:100790001000200000d0fe000800fa00c001210077
:1007a000104078008040e800c00121000148780036
:1007b000f480800005818000d00121001040780085
:1007c0000000fb00cf80de00040040008580480070
:1007d000f080880001818800c0012100104078006d
:1007e000e54f500032003400600a80008000eb00ca
:1007f000008fbe00900a80008000eb002007980068
:10080000310798002e009000be009000c000dd006f
:100810000000200020079800310798002e0090006b
:10082000be0090001e1f70001e977000c0012100c6
:100830008040eb0001487800108180002181800019
:100840003081880041818800f08080000181800033
:10085000e00f5000e08f580002003d0067004000ac
:10086000e08048004d0add004301de000201720015
:10087000c389de001e00be000000510081805900c7
:1008800010818800218188001281800023818000ee
:10089000308180004181800000005100818059003a
:1008a0005081880061818800b0002000130b070090
:1008b000a08080000000e00008003200a0808000de
:1008c0000000e900a0808800a08080000000e00017
:1008d00002003a0010002000080b0700b0808000e2
:1008e0000000e00008003200b08080000000e90055
:1008f000b0808800b08080000000e00002003a0074
:1009000020002000fd0a0700c08080000000e000f9
:100910000a003200d08080000000e900d08088000a
:10092000d08080000000e00004003a00c080800019
:10093000d080880030002000f00a07000028a900bd
:100940000080fa003400f9003200f9004f03be00c5
:100950004f02be004f01be004f00be003600f9003e
:10096000004006003600f800809fbe00829fbe0057
:10097000849fbe00869fbe003200f8003400f8005d
:1009800010002000a00188001000200000d0fe0010
:100990000200fa00e0118000620060000000e00048
:1009a000360032003c22a90050002000d30a070084
:1009b00039003700e0118000680060000000e000ae
:1009c00005003a00e1118000000420000080600072
:1009d0000000e0000500320060002000c70a0700a8
:1009e00020128000004f7800250037002012800080
:1009f000004f780040032100104078000004e00020
:100a00001f003a0030032100104078008080fb0076
:100a1000a00d2100008040001e4878003003210016
:100a2000104078008040e800300321000148780041
:100a30003003210010407800f2c3b3008240600010
:100a40003003210001487800500321008040eb0072
:100a500001487800300321009040780020032100f5
:100a60001040780080cf500005003a00400321007c
:100a700011c0b300014878000100370000000000f9
:100a8000f0118000620060000000e000c9ff320049
:100a900070002000990a07000168a9000080fa0090
:100aa0003400f9003200f9004f03be004f02be00cf
:100ab0004f01be004f00be003600f90000400600a6
:100ac0003600f800809fbe00829fbe00849fbe005b
:100ad000869fbe003200f8003400f80010002000ad
:100ae000a00188001000200000d0fe000000fa00e5
:100af00080002000810a07000188a9000080fa0018
:100b00003400f9003200f9004f03be004f02be006e
:100b10004f01be004f00be003600f9000040060045
:100b20003600f800809fbe00829fbe00849fbe00fa
:100b3000869fbe003200f8003400f800100020004c
:100b4000a00188001000200000d0fe000000fa0084
:100b500090002000690a07001048a9000080fa00f0
:100b60003400f9003200f9004f03be004f02be000e
:100b70004f01be004f00be003600f90000400600e5
:100b80003600f800809fbe00829fbe00849fbe009a
:100b9000869fbe003200f8003400f80010002000ec
:100ba000a00188001000200000d0fe000000fa0024
:100bb000a0002000510a07001068a9000080fa0078
:100bc0003400f9003200f9004f03be004f02be00ae
:100bd0004f01be004f00be003600f9000040060085
:100be0003600f800809fbe00829fbe00849fbe003a
:100bf000869fbe000000fa00c028a9000000eb009c
:100c0000c60f07000080fa004f03be004f02be006f
:100c10004f01be004f00be003600f9000040060044
:100c20003600f800809fbe00829fbe00849fbe00f9
:100c3000869fbe000000fa00c068a90020002000c6
:100c4000b60f07000080fa004f03be004f02be003f
:100c50004f01be004f00be003600f9000040060004
:100c60003600f800809fbe00829fbe00849fbe00b9
:100c7000869fbe000000fa00c608a9007000200090
:100c8000a60f07000080fa004f03be004f02be000f
:100c90004f01be004f00be003600f90000400600c4
:100ca0003600f800809fbe00829fbe00849fbe0079
:100cb000869fbe000000fa00c088a9003000200016
:100cc000960f07000080fa004f03be004f02be00df
:100cd0004f01be004f00be003600f9000040060084
:100ce0003600f800809fbe00829fbe00849fbe0039
:100cf000869fbe000000fa00214680000010200000
:100d0000008060000000e00003003200c508a90078
:100d1000c0002000810f0700214680000002200053
:100d2000008060000000e00003003200c4a8a900b9
:100d300090002000790f07002046800070006000be
:100d40000000e00003003200c488a900a0002000d9
:100d5000720f070020468000610060000000e00084
:100d600003003200c408a900b00020006b0f070088
:100d7000ffff37003200f8003400f800881f7800c9
:100d800018002000a80188001800200008d0fe00ec
:100d90004f0478000000fa00ffff37003200f8002f
:100da0003400f800881f780018002000a80188008f
:100db0001800200008d0fe004f0478000000fa0060
:100dc000ffff3700000005006022b8000602200087
:100dd0000000d0008180d2000482d2008582d2003f
:100de0000000a0000202520083825a00030031007a
:100df0000202420083824a000000a1000603e900cb
:100e0000f3ff3a0000000600efff07000400be00f9
:100e10000000060080007800010178003104e00045
:0c0e2000fdff3a00000051000000060039
:020000040000fa
:100e2c0000000000ca0000001f00000000020400c7
:100e3c000000000098040000ac040000c004000096
:100e4c00d4040000e804000010050000fc040000bd
:100e5c0010050000100500004803000010050000fc
:100e6c001005000010050000100500001005000022
:100e7c001005000010050000100500001005000012
:100e8c001005000010050000100500001005000002
:100e9c0010050000100500001005000010050000f2
:100eac0010050000100500001005000010050000e2
:100ebc0010050000100500001005000010050000d2
:100ecc0010050000100500001005000010050000c2
:100edc0010050000100500001005000010050000b2
:100eec0010050000100500001005000010050000a2
:100efc001005000010050000100500001005000092
:100f0c001005000010050000100500001005000081
:100f1c001005000010050000100500001005000071
:100f2c001005000010050000100500001005000061
:100f3c001005000010050000100500001005000051
:100f4c001005000010050000100500001005000041
:100f5c001005000010050000100500001005000031
:100f6c001005000010050000100500001005000021
:100f7c001005000010050000100500001005000011
:100f8c001005000010050000100500001005000001
:100f9c0010050000100500001005000010050000f1
:100fac0010050000100500001005000010050000e1
:100fbc0010050000100500001005000010050000d1
:100fcc0010050000100500001005000010050000c1
:100fdc0010050000100500001005000010050000b1
:100fec0010050000100500001005000010050000a1
:100ffc001005000010050000100500001005000091
:10100c001203000010050000100500001005000080
:10101c001005000010050000100500001005000070
:10102c001005000010050000100500001005000060
:10103c001005000010050000100500001005000050
:10104c001005000010050000100500001005000040
:10105c001005000010050000100500003804000009
:10106c0068040000100500001005000010050000c9
:10107c001005000010050000100500001005000010
:10108c001005000010050000100500001005000000
:10109c0010050000100500001005000010050000f0
:1010ac0010050000100500001005000010050000e0
:1010bc0010050000100500001005000010050000d0
:1010cc0010050000100500001005000010050000c0
:1010dc0010050000100500001005000010050000b0
:1010ec0010050000100500001005000010050000a0
:1010fc001005000010050000100500001005000090
:10110c00100500001005000010050000100500007f
:10111c00100500001005000010050000100500006f
:10112c00100500001005000010050000100500005f
:10113c00100500001005000010050000100500004f
:10114c001005000010050000100500000000fe0056
:10115c000000fe0000020000000200001f00000062
:10116c002f0e21000eff21000e0188000000000050
:10117c00000020000000e00002003200000120000e
:10118c002002880014000700870107000000e0001f
:10119c0003003a00c0f220000100200002003700da
:1011ac000000200001002000810f700001003200bf
:1011bc000f000700000020000000e00002003200d9
:1011cc000000020000000000e60e0200000000001b
:1011dc000040da000000fe00200020000000e000cb
:1011ec000200320010002000900188000000060070
:1011fc00a1028800800478000000eb001f0037007b
:10120c00e284440054a0b4009905ba00e28444007e
:10121c0054a0b4009906ba00e284440054a0b4006f
:10122c000006eb00476fde00fd07b200ae01880040
:10123c00636ce10003003a000ad801000000eb00e7
:10124c000e003700606ce10008003a00004deb0026
:10125c000a05e800020039003420ec000af0a00076
:10126c008b05e900f9ff3e00040037006168e100de
:10127c00010032000086eb000b00070019c7ba0012
:10128c001905ba000e04e00003003a000a00e00061
:10129c00dbff3a0000000600fe07b200ae02880039
:1012ac008a047800f5ff37000cd0a300e20f4d0044
:1012bc001c00390089027800354dba000a05e80097
:1012cc00020039003420ec000af0a0008b05e90084
:1012dc000f003200254dba000a05e8000200390063
:1012ec003420ec000af0a0008b05e9000800320065
:1012fc000c00e0000600320015cdba000a05e8002b
:10130c00020039003420ec000af0a0008b05e90043
:10131c008984e80054a0b4000b00e000e2ff3a001e
:10132c00000006009902ba00055d78008b05e90003
:10133c00f7ff3200c82ade00055d78008b05e90056
:10134c00f3ff32000c00e000f1ff320019ddba00af
:10135c00eeff3700d8070400000000001608040058
:10136c00000000003408040000000000a408040081
:10137c0000000000ae09040000000000b8090400e1
:10138c00000000003600f800809fbe00829fbe0067
:10139c00849fbe00869fbe003200f8003400f80027
:1013ac0010002000a00188001000200000d0fe00da
:1013bc000000fa006061800020818800400020005d
:1013cc00fa000700092ba8000d68a9000080fa009c
:1013dc003400f9003200f9004f03be004f02be008a
:1013ec004f01be004f00be003600f9000040060061
:1013fc003600f800809fbe00829fbe00849fbe0016
:10140c00869fbe003200f8003400f8001000200067
:10141c00a00188001000200000d0fe000800fa0097
:10142c0010d0bf000040e80010f0b700948080009e
:10143c00a580800011d0bf000000fb00cf80de0033
:10144c00040040008580480090808800a1808800be
:10145c0010d0bf00e54f500030003400600a80000f
:10146c008000eb00008fbe00900a80008000eb0033
:10147c0020079800310798002e009000be009000c5
:10148c00c000dd0000002000200798003107980004
:10149c002e009000be0090001e1f70001e97700062
:1014ac001070ef00b0808000c1808000d080880078
:1014bc00e180880090808000a1808000e00f5000c7
:1014cc00e08f580002003d0067004000e0804800bb
:1014dc004d0add004301de0002017200c389de000b
:1014ec001e00be000000510081805900b0808800b1
:1014fc00c1808800b2808000c3808000d0808000d2
:10150c00e18080000000510081805900f08088004b
:10151c000181880070002000a4000700408080003a
:10152c000000e00008003200408080000000e9006c
:10153c0040808800408080000000e00002003a00fb
:10154c001000200099000700508080000000e0008f
:10155c0008003200508080000000e90050808800b4
:10156c00508080000000e00002003a0020002000c3
:10157c008e000700608080000000e0000a0032004e
:10158c00708080000000e90070808800708080000e
:10159c000000e00004003a00608080007080880049
:1015ac0030002000810007000028a9000080fa000c
:1015bc003400f9003200f9004f03be004f02be00a8
:1015cc004f01be004f00be003600f900004006007f
:1015dc003600f800809fbe00829fbe00849fbe0034
:1015ec00869fbe003200f8003400f8001000200086
:1015fc00a00188001000200000d0fe000000fa00be
:10160c0050002000690007001048a9000080fa0073
:10161c003400f9003200f9004f03be004f02be0047
:10162c004f01be004f00be003600f900004006001e
:10163c003600f800809fbe00829fbe00849fbe00d3
:10164c00869fbe003200f8003400f8001000200025
:10165c00a00188001000200000d0fe000000fa005d
:10166c0060002000510007001068a9000080fa00fb
:10167c003400f9003200f9004f03be004f02be00e7
:10168c004f01be004f00be003600f90000400600be
:10169c003200f8003400f800881f78001800200091
:1016ac00a80188001800200008d0fe004f04780024
:1016bc000000fa00ffff37003200f8003400f80099
:1016cc00881f780018002000a8018800180020004e
:1016dc0008d0fe004f0478000000fa00ffff37002e
:1016ec003200f8003400f800881f78001800200041
:1016fc00a80188001800200008d0fe004f047800d4
:10170c000000fa00ffff37003200f8003400f80048
:10171c00881f780018002000a801880018002000fd
:10172c0008d0fe004f0478000000fa00ffff3700dd
:10173c003200f8003400f800881f780018002000f0
:10174c00a80188001800200008d0fe004f04780083
:10175c000000fa00ffff37003200f8003400f800f8
:10176c00881f780018002000a801880018002000ad
:10177c0008d0fe004f0478000000fa00ffff37008d
:10178c003200f8003400f800881f780018002000a0
:10179c00a80188001800200008d0fe004f04780033
:1017ac000000fa00ffff3700000005000600fa00f9
:1017bc00200798000040eb00004f78000040eb0041
:1017cc001047980010c0b3002047980002d0bf000b
:1017dc000004e00039003a0001002100914078003b
:1017ec0011479800160037001e4090000080fb0047
:1017fc000104200080804000600221000080400035
:10180c00104078008080fb002e009000808f5000ec
:10181c0005003a0010c0b300004f78000040eb0008
:10182c00204798000b0037001e4090000040e80055
:10183c00104798001e4090006f40600010479800c1
:10184c0011002100914078001e40900080cf500084
:10185c00e5ff3a002e4090000004e0001700320033
:10186c0001d0bf000081fb002e009000804078006a
:10187c0060062100000041000148780010c0b30050
:10188c00004f780001d0bf000040e80001f0b70025
:10189c0001d0bf006f40600001f0b7000370ef0093
:1018ac00010021009140780001d0bf0080cf500092
:1018bc0002003a0010c0b30002f0b7001e407800de
:1018cc000080fa00000006000600fa000040eb0061
:1018dc00004f78000040eb00104798000000eb0030
:1018ec00100798003503070003d0bf000004e00088
:1018fc001b003a0010c0b300004f780000d0bf00ae
:10190c000080fb0001042000808040006002210068
:10191c0000804000104078000080fb001007980009
:10192c0000d0bf000040e80000f0b70000d0bf00be
:10193c006f40600000f0b7000270ef000100210062
:10194c009140780001d0bf0080cf500002003a00d7
:10195c0010c0b30003f0b70010c0b30010479800dc
:10196c0000060000000200001f0000001c0307001e
:10197c001e4090000004e000090032001e009000a0
:10198c008002b00080004000600221000080400016
:10199c0010007800200798002e0090000000010035
:1019ac001e4078000080fa00000006000400fa00d7
:1019bc00000f780011079800030307009e009000a9
:1019cc00820220001e004100000140006002210044
:1019dc000000410001087800010307000080fa00b4
:1019ec00000006000200fa00f70207000070ef008a
:1019fc000170ef000270ef0010c0b30003f0b700ed
:101a0c000040eb00004f7800060037009e80fb0082
:101a1c0060062100008040008040eb000148780007
:101a2c001e4fe8001e407800ef4f5000f7ff3600c5
:101a3c00eb0207000080fa00000006000200fa002a
:101a4c00e10207000040eb00004f7800080037006f
:101a5c001e80fb00817d20008002b0000001400050
:101a6c006002210000004100010878001e4fe800d0
:101a7c001e407800ef4f5000f5ff3600d8020700eb
:101a8c000080fa00000006000600fa00200798000b
:101a9c000040eb00004f78000040eb00104798002e
:101aac0010c0b3002047980006d0bf000004e0002f
:101abc0039003a004100210091407800114798000c
:101acc00160037001e4090000080fb00010720002c
:101adc0080804000600221000080400010407800af
:101aec008080fb002e009000808f500005003a0093
:101afc0010c0b300004f78000040eb002047980066
:101b0c000b0037001e4090000040e8001047980082
:101b1c001e4090006f40600010479800510021005b
:101b2c00914078001e40900080cf5000e5ff3a00b5
:101b3c002e4090000004e0001700320005d0bf00da
:101b4c000081fb002e00900080407800600921008d
:101b5c00000041000148780010c0b300004f78002d
:101b6c0005d0bf000040e80005f0b70005d0bf006d
:101b7c006f40600005f0b7000770ef0041002100d6
:101b8c009140780005d0bf0080cf500002003a0091
:101b9c0010c0b30006f0b7001e4078000080fa00b9
:101bac00000006000600fa000040eb00004f780031
:101bbc000000eb001007980007d0bf000004e00005
:101bcc0022003a0010c0b300004f780004d0bf00d0
:101bdc000080fb0001072000808040006002210093
:101bec0000804000104078000080fb001007980037
:101bfc0004d0bf000040e80004f0b70004d0bf00e0
:101c0c006f40600004f0b7000670ef004100210047
:101c1c009140780005d0bf0080cf500002003a0000
:101c2c0010c0b30007f0b7001e0090000004b00015
:101c3c00800040006002210000804000100078000d
:101c4c00200798002e009000000001001e40780034
:101c5c000080fa00000006000400fa00000f780073
:101c6c00110798009e009000020420001e00410005
:101c7c0000014000600221000000410001087800d2
:101c8c000080fa00000006000200fa000470ef0069
:101c9c000570ef000670ef0010c0b30007f0b7003e
:101cac000040eb00004f7800060037009e80fb00e0
:101cbc0060092100008040008040eb000148780062
:101ccc001e4fe8001e407800ef4f5000f7ff360023
:101cdc000080fa00000006000200fa000040eb0051
:101cec00004f7800080037001e80fb00817d20002b
:101cfc000004b0000001400060022100000041001f
:101d0c00010878001e4fe8001e407800ef4f50008d
:101d1c00f5ff36000080fa00000006000000fa0013
:101d2c000080fa00000006000000fa00608120002c
:101d3c0080007800300020001cff0700408320004a
:101d4c00800078004000200018ff0700408a200027
:101d5c00800078005000200014ff0700e09a20005b
:101d6c00800078006000200010ff07000080fa005f
:101d7c00000006000000fa00e070ef0010c0b30095
:101d8c00e1f0b70050002000c3020700092ba800a7
:101d9c000080fa00000006000200fa00092ba900de
:101dac00090ba8003070800011800a0000000000b0
:101dbc00004f78001e4078000004e00002003a005a
:101dcc00062ea80001003700062ea9000080fa009c
:101ddc00000006000600fa00881f780022d0bf0021
:101dec000084fb006f03070008014400610221001e
:101dfc00810041008008780022d0bf000040e8003c
:101e0c0022f0b70022d0bf007f40600022f0b70064
:101e1c006000b80010079800210798000040eb0004
:101e2c00004f78000d0037001e80fb008000400042
:101e3c006002210000804000100078008000eb0060
:101e4c001e019000ae01900002004000838048000b
:101e5c0010079800210798001e4fe8001e407800dc
:101e6c00ff4f5000f0ff36001e009000ae009000b7
:101e7c004b09dd004500de0000007100c508de00e6
:101e8c0010079800210798001e019000ae019000e9
:101e9c00107f2f00f1ff2f000200400083804800cc
:101eac0032c4b300dd0007004f0478000080fa0054
:101ebc00000006000400fa00f002070031868000e2
:101ecc0080672500808f500002003a004086800019
:101edc00004f780050c5b3009e40780080cf500072
:101eec000400320050c7b3009e40780080cf5000f1
:101efc0006003a00e0d0bf000040e900e0f0b70077
:101f0c00e0d0bf003c0207006b00370040c4b300b8
:101f1c009e40780080cf50000400320040c6b300d1
:101f2c009e40780080cf500006003a00e0d0bf0001
:101f3c000040e800e0f0b700e0d0bf002e02070040
:101f4c005d00370000c5b3009e40780080cf500084
:101f5c000400320000c7b3009e40780080cf5000d0
:101f6c0016003a00d01d80004006b1001007980002
:101f7c009e009000b0f92000808f500002003600c7
:101f8c00b0f92000100798009e0090003006200049
:101f9c00808f500002003e00400620001007980081
:101fac00f1ff20001e00900000805000801f880070
:101fbc009e009000d11d88003f003700d0c4b300b4
:101fcc009e40780080cf500004003200d0c6b30091
:101fdc009e40780080cf500016003a00d01d800043
:101fec004006b000100798009e009000b0f9200049
:101ffc00808f500002003600b0f9200010079800c6
:10200c009e00900030062000808f500002003e00a1
:10201c004006200010079800f1ff20001e009000e1
:10202c0000805000801f88009e009000d11d880009
:10203c002100370030c4b3009e40780080cf5000a0
:10204c000400320030c6b3009e40780080cf5000b0
:10205c0009003a00f1010700e070ef005221ef0097
:10206c004c21ef00809b2000800078007000200045
:10207c004efe07001000370060c4b3009e4078008d
:10208c0080cf50000400320060c6b3009e40780040
:10209c0080cf500008003a00807d2000800078003e
:1020ac007000200041fe070000802000801f880087
:1020bc00f07f2000d01d8800100f800070868800f3
:1020cc000080fa00000006000000fa0010c0b30007
:1020dc00e1f0b7000080fa00000006000600fa00ec
:1020ec00b2808000c3808000f0808000018180007d
:1020fc0002004000838048004409dd00cc01de0072
:10210c00830171004401dd00f07f200001002000fc
:10211c0002004000838048001007980021079800b7
:10212c001e019000ae019000b0f9200001002000cb
:10213c00800f5100818f590003003400b0f920004a
:10214c00000f78000c0037001e019000ae019000cb
:10215c003006200001002000800f5100818f5900b3
:10216c0003003c0040062000000f7800000a00002d
:10217c00000200001f000000020037009e009000cb
:10218c00010f7800f0ff20001e005000801f880017
:10219c009e007800d11d88000080fa000000060027
:1021ac000800fa00e0868000f1868000008fbe00f7
:1021bc00600a80008000eb00e0868800f1868800d1
:1021cc00900a80008000eb002007980031079800ef
:1021dc002e009000be009000c000dd00000020002a
:1021ec002007980031079800e0868000f186800077
:1021fc000001be002e009000be0090000000710097
:10220c0081807100e0868800f1868800d08680008d
:10221c00cf80de00008fbe00a00a8000d086880030
:10222c000080fa00000006000600fa00008fbe00d5
:10223c0042479800e1d0bf000004e0000c003200df
:10224c00e170ef0040232100808688001e00be0054
:10225c004008de0000007800908688001e007800a0
:10226c00a0868800d630ef00d830ef00f5010700cb
:10227c000080fa00000006000000fa00011880003f
:10228c00f0fc2f000080600000188800011880000e
:10229c00c0ff2f0000806000001888000623ef00ac
:1022ac00000021005018880000802000801f88004a
:1022bc00f07f2000d01d880020032000301e8800f5
:1022cc0020032000401e880020032000e01f88000f
:1022dc0020032000f01f880099e3a90099c3a800ef
:1022ec0099a3a8009963a800c11c800000ff2f00cf
:1022fc0000806000c01c880098c3a900c11c80002d
:10230c00f08f2f0000806000c01c8800b11c800082
:10231c0070fe2f00008060000030a000b01c880010
:10232c0096e3a900b11c800080ff2f0000806000a4
:10233c000020a000b01c880097e3a900b11c80000d
:10234c00f08f2f0000806000b01c8800f11c800012
:10235c00f0ff280000806000f01c88009f03a9009b
:10236c009e63a8009e43a800f11c8000f0fc2f0087
:10237c0000806000f01c88009e23a8009e03a9002a
:10238c00a103a900a123a900a143a900011d80005c
:10239c00f07f200000806000001d8800011d80007f
:1023ac0080ff2f0000806000001d8800011d800050
:1023bc0070fe2f00008060000030a000001d88001f
:1023cc00cfe3a900cfc3a800cfa3a800cf63a90077
:1023dc00711e800000ff2f00008060003000b300f1
:1023ec00701e8800cec3a900711e8000f08f2f00d4
:1023fc00808060000030200001007000701e88009a
:10240c00611e800070fe2f00008060000030a00074
:10241c00601e8800cce3a900611e800080ff2f00a5
:10242c00008060000020a000601e8800cde3a800a2
:10243c00611e8000f08f2f0000806000601e8800fd
:10244c00a11e8000f0ff280000806000a01e880004
:10245c00d503a900d463a800d443a800a11e800012
:10246c00f0fc2f0000806000a01e8800d423a80080
:10247c00d403a9000080fa00000006000000fa0056
:10248c0097e3a8000080fa00000006000000fa00a4
:10249c00317c8000f08f2f0000806000307c880041
:1024ac00317c800000fc2f00008060000000a00048
:1024bc00307c8800d1072000b0210a00880f000072
:1024cc00517c8000f0f82f00808060000005200017
:1024dc0001007000507c8800517c800080ff2f0030
:1024ec00008060000000a000507c880012002000da
:1024fc0080072000a109200053f8200080497800b3
:10250c008149780082497800207c800000017800a5
:10251c000200a000600420007105200043f8200098
:10252c0080497800814978008249780000000000d9
:10253c00207c8000610060000000e000fcff3a009d
:10254c0000000000217c8000000220000080600060
:10255c000000e000fbff3200c1e8a8000000eb0027
:10256c0051052000b1468800a10a2000b146880020
:10257c0000688800416c800000fc2f0080806000a7
:10258c002002200001007000406c8800416c80002b
:10259c00f00f2c00808060000030220001007000e1
:1025ac00406c880000c2b30020edb70010c2b3002d
:1025bc0021edb7000080200051052000b1468800b5
:1025cc00a10a2000b1468800006888000080fa004b
:1025dc00000006000000fa00c3e8a900000000009b
:1025ec00000000000080fa00000006000000fa0065
:1025fc00c3e8a80000000000000000000080fa0002
:10260c00000006000000fa0051588000f00f2c006a
:10261c00008060000080a000505888005158800055
:10262c00f0ff230000806000505888002158800083
:10263c0000f82f000080600020588800058ba9004e
:10264c0005eba90005cba90041588000f0ff210043
:10265c0000806000405888004158800000fc2f002a
:10266c00008060000040a0004058880002eba900e8
:10267c0011588000000620000100700010588800de
:10268c00140ba9008100200090210a00060b000009
:10269c00f20ba900d20ba900815c800000fe2f0078
:1026ac00008060000000a000805c88000080fa00c0
:1026bc00000006000000fa001160800000f020000d
:1026cc00010070001060880002eca90001aba800aa
:1026dc0001eba80000eca8000000000001608000e5
:1026ec0000002800008060000000e000fbff3200ca
:1026fc000aeba8000080fa00000006000000fa00b7
:10270c00220ba800a1438000f0ff2800008060008d
:10271c0000e0a000a04388002d68a8000080fa000b
:10272c00000006000000fa002430ef002270ef00d9
:10273c000080fa00000006000000fa00010a800088
:10274c00c0ff2f0000806000000a88004061a900d3
:10275c004041a900010a8000f0cf2f0000806000ea
:10276c00000a8800010a8000f0f82f000080600049
:10277c00000a8800010a8000f03f2e0000806000f3
:10278c00000a880041a1a80045c1a90044e1a900a4
:10279c0044c1a900210a8000f09f2f000080600036
:1027ac00200a880045e1a9004481a90044a1a900a0
:1027bc00210a8000f07f2c0000806000200a880035
:1027cc004501a8004601a9004841a9004801a900fb
:1027dc004981a90048c1a9004941a9004901a900a2
:1027ec004881a9005221ef004c21ef000080fa0033
:1027fc00000006000000fa0041e1a8000080fa0089
:10280c00000006000200fa00004f78002028a90002
:10281c001e41780011012100824878002028a80070
:10282c000080fa00000006000000fa002028a90031
:10283c001070ef001230ef001430ef001170ef0049
:10284c001630ef001830ef001a30ef001c30ef009c
:10285c001e30ef002030ef002028a8000080fa0086
:10286c00000006000200fa00000f78002028a900e2
:10287c009e007800418088002028a8000080fa0083
:10288c00000006000200fa00000f78002028a900c2
:10289c009e007800518088002028a8000080fa0053
:1028ac00000006000200fa00000f78002028a900a2
:1028bc009e007800718088009e00780061808800fe
:1028cc002028a8000080fa00000006000000fa0092
:1028dc0001088000f0fc2f00008060000040a00088
:1028ec00000888000021a80001088000f0cf2f000c
:1028fc00008060000080a0000008880000e1a900b2
:10290c000181a90001a1a8000041a900a086210015
:10291c00400888000080fa00000006000000fa0061
:10292c0001e1a8000080fa00000006000000fa0097
:10293c000830ef000a30ef000e30ef000c30ef00e3
:10294c001070ef001230ef001430ef001170ef0038
:10295c001630ef001830ef001a30ef001c30ef008b
:10296c001e30ef002030ef000080fa00000006005f
:10297c000000fa0001428000000e00009e000000e2
:10298c001f000000f0f82f00008060000060a00025
:10299c00004288002028a8000080fa0000000600f1
:1029ac000000fa00910e8000f03f2f0000806000c4
:1029bc00900e8800d321a900d301a900d2e1a9006f
:1029cc00fb61a900fb41a900fb21a900fb01a900a7
:1029dc00fa61a900fa41a900fa21a900fa01a9009b
:1029ec000080fa00000006000000fa00fbe1a800dd
:1029fc00fae1a8000080fa00000006000000fa00ce
:102a0c0001448000f0f82f00008060000060a000fe
:102a1c00004488003028a80001448000f08f2f006b
:102a2c000080600000a0a000004488003048a8008e
:102a3c0001448000f0ff28000080600000e0a0004e
:102a4c00004488003068a8000080fa0000000600ee
:102a5c000000fa00c00e8000620060000000e00080
:102a6c000a003a0080868000200f88009086800043
:102a7c00300f8800a0868000400f8800b086800050
:102a8c00500f8800c0868000600f88000080fa001c
:102a9c00000006000000fa00c00e8000610060001b
:102aac000000e00008003200d00e80003086880064
:102abc00e00e800040868800f00e80005086880072
:102acc00000f8000608688000080fa00000006007d
:102adc000000fa0040002000007088001c2eef005f
:102aec000080eb00107088000080eb00f070880014
:102afc00062eef00222eef00082eef00242eef0002
:102b0c000a2eef00262eef000c2eef00282eef00e1
:102b1c000feea9002beea900102eef002c2eef00cb
:102b2c00142eef00302eef00260ea800262ea80043
:102b3c00022ea9001f0ea9001f2ea9001f4ea900ce
:102b4c001f6ea900062ea9000080fa0000000600e6
:102b5c000000fa0050fe0700a8fb070050fc07001d
:102b6c00bcfb070062fc0700d9ff07008cff0700c5
:102b7c009dff0700a1ff0700c2fd070042fe0700f2
:102b8c00f0fe07001eff0700e9fe0700a0fe07008d
:102b9c00cbfe0700dcfe070067ff07004eff0700b7
:102bac0061ff070075ff070065fc070077fc070055
:102bbc004efb070001fc0700fdff37000200fa0086
:102bcc002d68a90021818000010f78002d68a800d4
:102bdc001e0078000080fa0000000600da100000e9
:102bec00080000008000000000100000da00000067
:102bfc0080000000000000000000fe00000000004b
:042c0c0000000000c4
:020000040000fa
:102c10000000fa00006521008000780030002000ec
:102c2000c7020700e0662100800078004000200015
:102c3000c30207002071210080007800700020008e
:102c4000bf02070060ef21008000780080002000b4
:102c5000bb020700806d210080007800a0002000ea
:102c6000b7020700807021008000780090002000eb
:102c7000b30207000080fa00000006000000fa001e
:102c80000870ef0010c0b30009f0b700500020003a
:102c9000e2060700092ba8000080fa0000000600e9
:102ca0000200fa00092ba900090ba800307080006f
:102cb00033800a0000000000004f78001e407800ba
:102cc0000004e00002003a00066ea8000100370090
:102cd000066ea9000080fa00000006000600fa0057
:102ce000881f7800e0022100104078000084fb007b
:102cf0008207070008014400a10321008100410070
:102d000080087800e0022100104078008040e80050
:102d1000e002210001487800e00221001040780024
:102d2000ff406000e0022100014878006000b80028
:102d300010079800210798000040eb00004f780032
:102d40000d0037001e80fb0080004000a003210022
:102d500000804000100078008000eb001e01900011
:102d6000ae019000020040008380480010079800e8
:102d7000210798001e4fe8001e407800ff4f5000ca
:102d8000f0ff36001e009000ae0090004b09dd0001
:102d90004500de0000007100c508de001007980045
:102da000210798004f0478000080fa000000060018
:102db0000400fa0014070700d18a80004023210094
:102dc000808f50000b003a00e08a80008000eb000a
:102dd000008fbe001e00be00c000dd00000020000d
:102de000008fbe00f08a80008000eb001e1f700084
:102df0001e9770001e00be00a2c5b300f3000700be
:102e0000600f8000108b88000080fa000000060030
:102e10000000fa0010c0b30009f0b7000080fa000b
:102e2000000006000400fa000040eb002047980074
:102e3000740307000004e00089003a0009d0bf00d5
:102e40000004e000860032000e80e8003d03070029
:102e50000970ef0080672500208b88002e409000cd
:102e60000080fb00308b88000000eb00408b880066
:102e70000000eb00508b88000000eb00608b8800a6
:102e8000d0060700ae40900050c5b30080cf500080
:102e900004003200ae40900050c7b30080cf500015
:102ea00006003a0008d0bf000040e90008f0b70073
:102eb00008d0bf002a06070069003700ae40900026
:102ec00040c4b30080cf500004003200ae409000f8
:102ed00040c6b30080cf500006003a0008d0bf00c3
:102ee0000040e80008f0b70008d0bf001c0607004b
:102ef0005b003700ae40900000c5b30080cf5000ab
:102f000004003200ae40900000c7b30080cf5000f4
:102f100015003a00701a8000c1f92f00010f40001f
:102f2000b0f920009e007800808f5000020036002b
:102f3000b0f92000000f7800300620009e007800d5
:102f4000808f500002003e0040062000000f7800f5
:102f5000f0ff20001e005000201c88009e0078001a
:102f6000711a88003e003700ae409000d0c4b30014
:102f700080cf500004003200ae409000d0c6b300b5
:102f800080cf500015003a00701a800041062000e2
:102f9000010f4000b0f920009e007800808f5000a3
:102fa00002003600b0f92000000f78003006200043
:102fb0009e007800808f500002003e0040062000f6
:102fc000000f7800f0ff20001e005000201c880039
:102fd0009e007800711a880021003700ae409000f2
:102fe00030c4b30080cf500004003200ae409000e7
:102ff00030c6b30080cf500009003a00e00507005a
:103000000870ef005221ef004c21ef006084210096
:1030100080007800b0002000c901070010003700d0
:10302000ae40900060c4b30080cf50000400320076
:10303000ae40900060c6b30080cf500008003a0058
:10304000c0d9210080007800b0002000bc0107003a
:1030500000802000201c8800f07f2000701a88006b
:10306000e80207000004e00006003a002071210099
:103070008000780010002000b1010700100020003f
:10308000d60507000080fa00000006000600fa00de
:103090001281800023818000508180006181800046
:1030a00002004000838048004409dd00cc01de00be
:1030b000830171004401dd00f07f20000100200049
:1030c0000200400083804800100798002107980004
:1030d0001e019000ae019000b0f920000100200018
:1030e000800f5100818f590003003400b0f9200097
:1030f000000f78000c0037001e019000ae01900018
:103100003006200001002000800f5100818f5900ff
:1031100003003c0040062000000f7800020037004a
:103120009e009000010f7800f0ff20001e0050006c
:10313000201c88009e007800711a88000080fa0028
:10314000000006000800fa00208080003180800026
:10315000008fbe00600a80008000eb0020808800a5
:1031600031808800900a80008000eb0020079800e2
:10317000310798002e009000be009000c000dd00d6
:103180000000200020079800310798002080800070
:10319000318080000001be002e009000be00900033
:1031a00000007100818071002080880031808800db
:1031b00010808000cf80de00008fbe00a00a80005b
:1031c000108088000080fa00000006000800fa0065
:1031d0001007980021079800624798000070ef00e0
:1031e0001e009000ae009000e00f5000e08f5800ed
:1031f00009003d001e009000ae009000600010002d
:10320000e08018000042eb00ee419000d2c2b30013
:1032100044000700060037001e009000ae0090003a
:103220000042eb00ee419000b2c2b3003d00070047
:10323000e0162100f7f60700004f78000070ef005d
:103240002000370000d0bf000080fb00e116210005
:1032500000804000904078001147980000d0bf00e7
:103260000080fb001e81fb000100210091407800de
:103270008180fb00810051008100e900e2162100fd
:103280008100410091407800e216210000004100d9
:10329000014878009e80fb0000d0bf000080fb004a
:1032a000008050000000e900e1162100008040008d
:1032b0009e4090000148780000d0bf000040e80028
:1032c00000f0b7001e80fb000000d10080407800b5
:1032d00000d0bf0080cf5000daff3e001e80fb0010
:1032e000e116210000804000d1c0b3000148780001
:1032f0001e4fe8001e80fb00e11621000080400008
:10330000a1c0b300014878001e4fe8001e80fb00fa
:1033100080007800e0162100420207000080fa00d9
:10332000000006001400fa0060079800710798007a
:103330000257980013579800245798006e01900088
:10334000fe01900042079800530798004e0090003d
:10335000de009000a2002000030020009af6070083
:10336000008fbe004e009000de009000a200200002
:1033700003002000a4f607002007980031079800fa
:103380001a00370000d0bf008080fb002e019000a3
:10339000024178000243b000e31621008180410021
:1033a000824878000040e80000f0b7001e01be002f
:1033b00042079800530798004e009000de009000ee
:1033c000a2002000030020007ff60700008fbe004f
:1033d0004e009000de009000a200200003002000bc
:1033e00089f6070020079800310798001e01be00eb
:1033f0009000200001002000800f5100818f5900b3
:10340000e0ff3e0000d0bf008080fb002e01900056
:10341000024178000243b000e316210081804100a0
:10342000824878000040e80000f0b70000d0bf00fc
:103430008080fb001e017800024178000243b0004a
:10344000e316210081804100824878000040e800b6
:1034500000f0b70000d0bf008080fb00e216210022
:10346000810041008e519000834878000040e800c0
:1034700000f0b70000d0bf008080fb00e216210002
:103480008100410002c2b300824878000040e80099
:1034900000f0b70000d0bf008080fb00e2162100e2
:1034a00081004100a2c3b300824878000040e800d8
:1034b00000f0b70000d0bf008080fb00e2162100c2
:1034c000810041001e519000824878000040e800d1
:1034d00000f0b70000d0bf008080fb00e2162100a2
:1034e00081004100ae519000834878000040e80020
:1034f00000f0b7000080fa00000006000600fa00a5
:10350000200798000040eb00004f78000040eb00df
:103510001047980010c0b30020479800e000210039
:10352000104078000004e00042003a00c000210092
:103530009040780011479800160037001e40900018
:103540000080fb000104200080804000a0032100d7
:1035500000804000104078008080fb002e0090002a
:10356000808f500005003a0010c0b300004f780073
:103570000040eb00204798000b0037001e409000f1
:103580000040e800104798001e4090006f40600027
:1035900010479800d0002100904078001e40900015
:1035a00080cf5000e5ff3a002e4090000004e0007c
:1035b00020003200d0002100104078000081fb0084
:1035c0002e00900080407800a007210000004100fc
:1035d0000148780010c0b300004f7800d0002100ef
:1035e000104078008040e800d000210001487800b9
:1035f000d000210010407800ef406000d000210092
:1036000001487800f00021008040eb00014878007c
:10361000c000210090407800d000210010407800c8
:1036200080cf500003003a00e000210011c0b30039
:10363000014878001e4078000080fa000000060073
:103640000600fa000040eb00004f78000040eb005d
:10365000104798000000eb00100798005d0307007a
:10366000f0002100104078000004e00024003a003f
:1036700010c0b300004f7800c00021001040780057
:103680000080fb000104200080804000a003210096
:1036900000804000104078000080fb001007980078
:1036a000c0002100104078008040e800c0002100e8
:1036b00001487800c000210010407800ef40600011
:1036c000c000210001487800e00021008040eb00ac
:1036d00001487800c000210090407800d00021000f
:1036e0001040780080cf500003003a00f000210025
:1036f00011c0b3000148780010c0b3001047980013
:103700003a0307001e4090000004e0000900320068
:103710001e0090008002b00080004000a003210045
:103720000080400010007800200798002e009000d4
:10373000000001001e4078000080fa000000060032
:103740000400fa00000f7800110798002103070019
:103750009e009000820220001e00410000014000f7
:10376000a003210000004100010878001f030700aa
:103770000080fa00000006000200fa0015030700ae
:10378000c00021008040eb0001487800d0002100fb
:103790008040eb0001487800e00021008040eb0011
:1037a00001487800f000210011c0b3000148780002
:1037b0000040eb00004f7800060037009e80fb00c1
:1037c000a0072100008040008040eb000148780005
:1037d0001e4fe8001e407800ef4f5000f7ff360004
:1037e000020307000080fa00000006000200fa0051
:1037f000f80207000040eb00004f78000800370097
:103800001e80fb00c1d921008002b00000014000f1
:10381000a003210000004100010878001e4fe800cd
:103820001e407800ef4f5000f5ff3600ef02070012
:103830000080fa00000006000600fa002007980049
:103840000040eb00004f78000040eb00104798006c
:1038500010c0b300204798002001210010407800dc
:103860000004e00042003a0000012100904078008e
:1038700011479800160037001e4090000080fb00a2
:103880000107200080804000a0032100008040004c
:10389000104078008080fb002e009000808f500048
:1038a00005003a0010c0b300004f78000040eb0064
:1038b000204798000b0037001e4090000040e800b1
:1038c000104798001e4090006f406000104798001d
:1038d00010012100904078001e40900080cf5000e1
:1038e000e5ff3a002e4090000004e0002000320086
:1038f00010012100104078000081fb002e00900094
:1039000080407800a00a21000000410001487800b2
:1039100010c0b300004f7800100121001040780063
:103920008040e800100121000148780010012100ca
:1039300010407800ef40600010012100014878003d
:10394000300121008040eb00014878000001210097
:1039500090407800100121001040780080cf500086
:1039600003003a002001210011c0b3000148780093
:103970001e4078000080fa00000006000600fa00f1
:103980000040eb00004f78000000eb0010079800ab
:1039900030012100104078000004e0002b003a00c4
:1039a00010c0b300004f78000001210010407800e3
:1039b0000080fb000107200080804000a003210060
:1039c00000804000104078000080fb001007980045
:1039d00000012100104078008040e8000001210033
:1039e000014878000001210010407800ef4060009d
:1039f0000001210001487800200121008040eb00f7
:103a00000148780000012100904078001001210059
:103a10001040780080cf500003003a0030012100b0
:103a200011c0b300014878001e0090000004b000ef
:103a300080004000a00321000080400010007800ba
:103a4000200798002e009000000001001e40780022
:103a50000080fa00000006000400fa00000f780061
:103a6000110798009e009000020420001e004100f3
:103a700000014000a003210000004100010878007f
:103a80000080fa00000006000200fa000001210098
:103a90008040eb0001487800100121008040eb00dd
:103aa00001487800200121008040eb0001487800a7
:103ab0003001210011c0b300014878000040eb0044
:103ac000004f7800060037009e80fb00a00a21000e
:103ad000008040008040eb00014878001e4fe80065
:103ae0001e407800ef4f5000f7ff36000080fa00cc
:103af000000006000200fa000040eb00004f7800d2
:103b0000080037001e80fb00c1d921000004b0006e
:103b100000014000a00321000000410001087800de
:103b20001e4fe8001e407800ef4f5000f5ff3600b2
:103b30000080fa00000006000000fa000080fa0091
:103b4000000006000400fa00100798000040eb0097
:103b5000004f78002168a900500321001040780030
:103b60000004e00023003a00200321001040780008
:103b70000080fb00010a200080804000a00321009b
:103b800000804000904078001e00900001487800be
:103b900010c0b300004f78002003210010407800cf
:103ba0008040e80020032100014878002003210024
:103bb00010407800f2c3b30082406000200321006f
:103bc00001487800400321008040eb000148780064
:103bd000200321009040780030032100104078003d
:103be00080cf500003003a005003210011c0b30001
:103bf000014878002168a8001e4078000080fa0083
:103c0000000006000200fa002168a900500321000c
:103c1000104f78002168a8001e4078000080fa004c
:103c2000000006000800fa002007980031079800fd
:103c30000000eb00100798000040eb00004f7800f8
:103c40002400370070032100104078000081fb0041
:103c5000ae0090001e009000008040009040780070
:103c6000a011210000004100014878001e009000d2
:103c70000000e80010079800700321001040780051
:103c80008040e800700321000148780070032100a3
:103c900010407800f2c3b30082406000700321003e
:103ca00001487800900321008040eb000148780033
:103cb00070032100904078006003210010407800dc
:103cc00080cf500003003a008003210011c0b300f0
:103cd0000148780080032100104078000004e000d3
:103ce00004003a009e0090003e009000808f50003b
:103cf000d4ff39009e0090003e009000808f50005d
:103d000002003a0010c0b300004f78000000eb0042
:103d100010079800f1118000000220000080600070
:103d20000000e0002e0032002188a90024003700a6
:103d300060032100104078000080fb00010e20008d
:103d400080804000a00321000080400010407800e7
:103d50000080fb00401288001e0090000000e80078
:103d60001007980060032100104078008040e800b0
:103d700060032100014878006003210010407800b2
:103d8000f2c3b30082406000600321000148780064
:103d9000800321008040eb0001487800600321008f
:103da00090407800700321001040780080cf5000d0
:103db00003003a009003210011c0b30001487800cd
:103dc00090032100104078000004e00003003a0056
:103dd0001e009000e70f5000d5ff36002188a80094
:103de0001e4078000080fa00000006000200fa0081
:103df0000000eb00000f7800f111800000022000ad
:103e0000008060000000e0002c0032002188a90042
:103e10002200370060032100104078000080fb0082
:103e2000010e200080804000a0032100008040009f
:103e3000104078000080fb00401288001e0fe80050
:103e400060032100104078008040e80060032100fa
:103e5000014878006003210010407800f2c3b300ed
:103e60008240600060032100014878008003210047
:103e70008040eb000148780060032100904078000a
:103e8000700321001040780080cf500003003a00fa
:103e90009003210011c0b300014878009003210075
:103ea000104078000004e00003003a001e00780093
:103eb000e70f5000d7ff36002188a8000080fa00e5
:103ec000000006000200fa002188a90090032100ea
:103ed000104f78002188a8001e4078000080fa006a
:103ee000000006000000fa0001188000f0fc2f001e
:103ef000008060000018880001188000c0ff2f00bb
:103f000000806000001888000623ef0000002100f8
:103f10005018880000802000201c8800f07f2000be
:103f2000701a880020032000d01a88002003200087
:103f3000e01a880020032000801c88002003200055
:103f4000901c88002de3a9002dc3a8002da3a80074
:103f50002d63a8006119800000ff2f000080600021
:103f6000601988002cc3a90061198000f08f2f0010
:103f700000806000601988005119800070fe2f00d9
:103f8000008060000030a000501988002ae3a900da
:103f90005119800080ff2f00008060000020a000e9
:103fa000501988002be3a90051198000f08f2f00d1
:103fb000008060005019880091198000f0ff2800ef
:103fc00000806000901988003303a9003263a800c4
:103fd0003243a80091198000f0fc2f00008060009f
:103fe000901988003223a8003203a9003503a900e4
:103ff0003523a9003543a900a1198000f07f2000d6
:1040000000806000a0198800a119800080ff2f00a7
:1040100000806000a0198800a119800070fe2f00a8
:10402000008060000030a000a019880063e3a900b0
:1040300063c3a80063a3a8006363a900111b8000e9
:1040400000ff2f00008060000000a000101b88000f
:1040500062c3a900111b8000f08f2f0080806000d8
:104060000030200001007000101b8800011b800040
:1040700070fe2f00008060000030a000001b880050
:1040800060e3a900011b800080ff2f00008060001a
:104090000020a000001b880061e3a800011b800035
:1040a000f08f2f0000806000001b8800411b800003
:1040b000f0ff280000806000401b88006903a90011
:1040c0006863a8006843a800411b8000f0fc2f0033
:1040d00000806000401b88006823a8006803a900d6
:1040e0000080fa00000006000000fa002be3a800a0
:1040f0000080fa00000006000000fa0038c2a900a3
:1041000038e2a8003922a900c111800000ff2f0069
:1041100000806000c01188003962a90039a2a8009f
:104120003902a9003982a9003b62a800d1118000a0
:10413000f09f2f000080600000a0a000d011880038
:104140003a62a900d1118000c0ff2f0000806000fa
:10415000d01188003b02a9003ae2a8003be2a90086
:10416000d1118000f0fc2f0000806000d011880089
:104170003ac2a9003a42a9003da2a9003d82a90085
:104180003d62a9003d22a9003dc2a9003d42a9000f
:104190003d02a9003de2a9003ec2a800f111800045
:1041a000f08f2f0000806000f0118800f111800076
:1041b000f0ff280000806000f011880040362000e9
:1041c000001288000080fa00000006000000fa00db
:1041d00039e2a8003882a80038a2a8000080fa00be
:1041e000000006000000fa00200321008040eb00e0
:1041f00001487800300321008040eb00014878003e
:10420000400321008040eb0001487800500321006a
:1042100011c0b30001487800600321008040eb002a
:1042200001487800700321008040eb0001487800cd
:10423000800321008040eb000148780090032100ba
:1042400011c0b300014878000080fa0000000600a9
:104250000000fa0021428000f0ff2800008060008a
:1042600000e0a000204288002168a8000080fa0039
:10427000000006000000fa003142800080ff2f009d
:10428000008060000020a000304288002188a90042
:104290000080fa00000006000000fa00317c800077
:1042a000f08f2f0000806000307c8800317c80001f
:1042b00000fc2f00008060000000a000307c88001f
:1042c000d1072000b0210a00880f0000517c800037
:1042d000f0f82f00808060000005200001007000d1
:1042e000507c8800517c800080ff2f00008060009f
:1042f0000000a000507c88001200200080072000f1
:10430000a109200053f820008049780081497800f5
:1043100082497800207c8000000178000200a00023
:10432000600420007105200043f8200080497800d7
:10433000814978008249780000000000207c8000dc
:10434000610060000000e000fcff3a000000000097
:10435000217c800000022000008060000000e0005e
:10436000fbff3200c1e8a8002a0007002500070073
:104370000000eb0051052000b1468800a10a200092
:10438000b14688000068880040c2b30020edb70045
:1043900070c2b30021edb70020c2b30028edb70012
:1043a000116c8000f00f2c00008060000080a000e5
:1043b000106c88000080200051052000b146880064
:1043c000a10a2000b1468800006888000080fa0039
:1043d000000006000000fa00c3e8a9000000000089
:1043e000000000000080fa00000006000000fa0053
:1043f000c3e8a80000000000000000000080fa00f0
:10440000000006000000fa00a1f007000080fa009a
:10441000000006000000fa00607128000120200062
:104420000001be008000eb001000200072f00700c9
:104430000080fa00000006000000fa0051588000d9
:10444000f00f2c00008060000080a0005058880011
:1044500051588000f0ff2300008060005058880011
:104460002158800000f82f0000806000205888004c
:10447000058ba90005eba90005cba90041588000d8
:10448000f0ff210000806000405888004158800003
:1044900000fc2f00008060000020a0004058880031
:1044a00002eba900115880000006200001007000f6
:1044b00010588800110ba9008100200090210a00eb
:1044c000060b0000f08ba900d08ba900215c8000b6
:1044d00000fe2f00008060000000a000205c88002b
:1044e0000080fa00000006000000fa001160800061
:1044f00000f02000010070001060880002eca900ac
:1045000001aba80001eba80000eca800000000002f
:104510000160800000002800008060000000e000d2
:10452000fbff32000aeba8000080fa000000060042
:104530000000fa00208ba80071438000f0ff2800e3
:104540000080600000e0a000704388002be8a80015
:104550000080fa00000006000000fa000000eb00f6
:1045600080818800e00221008040eb000148780053
:104570000080fa00000006000000fa000108800038
:10458000f0fc2f00008060000040a00000088800c0
:104590000021a80001088000f0cf2f0000806000fb
:1045a0000080a0000008880000e1a9000181a900a6
:1045b00001a1a8000041a900a086210040088800b0
:1045c0000080fa00000006000000fa0001e1a800e7
:1045d0000080fa00000006000000fa000000eb0076
:1045e000a08088000000eb00b08088000000eb0095
:1045f000d08088000000eb00c0808800c00121004e
:104600008040eb00014878006000b800f08088002e
:1046100001818800d00121008040eb000148780032
:104620006000b80010818800218188006000b80017
:1046300030818800418188006000b8005081880086
:10464000618188000080fa00000006000000fa0086
:1046500001428000f0f82f00008060000060a000a0
:10466000004288002028a8000080fa000000060010
:104670000000fa0000012000007088001c2eef00ee
:104680000080eb00107088000080eb00f070880064
:10469000062eef00222eef00082eef00242eef0052
:1046a0000a2eef00262eef000080eb0060708800dd
:1046b0000080eb00407188000feea9002beea900ee
:1046c000102eef002c2eef00142eef00302eef00f6
:1046d0000c2ea9000c4ea9000c6ea9000c8ea9008e
:1046e000280ea900282ea900284ea900286ea9008e
:1046f000288ea90028aea90028cea90028eea9007e
:10470000290ea900292ea900294ea900296ea90069
:10471000298ea90029aea90029cea90029eea90059
:10472000268ea80026eea800026ea9001e6ea90023
:104730001f8ea9001faea9001fcea9001feea90061
:10474000022ea9001f0ea9001f2ea9001f4ea900ae
:104750001f6ea900066ea9000080fa000000060086
:104760000200fa00004f78002028a900d0012100a3
:104770001e4878002028a8000080fa0000000600eb
:104780000000fa002028a900c00121008040eb00b1
:10479000014878006000b800f0808800018188003e
:1047a000d00121008040eb00014878006000b80093
:1047b00010818800218188006000b8003081880065
:1047c000418188006000b8005081880061818800c4
:1047d0002028a8000080fa00000006000200fa006d
:1047e000000f78002028a9009e007800a180880092
:1047f0002028a8000080fa00000006000200fa004d
:10480000000f78002028a9009e007800b180880061
:104810002028a8000080fa00000006000200fa002c
:10482000000f78002028a9009e007800d180880021
:104830009e007800c18088002028a8000080fa002f
:10484000000006000000fa00010a8000c0ff2f00ef
:1048500000806000000a88004061a9004041a90072
:10486000010a8000f0cf2f0000806000000a88005d
:10487000010a8000f0f82f0000806000000a880024
:10488000010a8000f03f2e0000806000000a8800ce
:1048900041a1a80045c1a90044e1a90044c1a90063
:1048a000210a8000f09f2f0000806000200a88000d
:1048b00045e1a9004481a90044a1a900210a800082
:1048c000f07f2c0000806000200a88004501a900cc
:1048d0004601a9004841a9004801a9004981a90051
:1048e00048c1a9004941a9004901a9004881a9007e
:1048f0005221ef004c21ef000080fa00000006007a
:104900000000fa0041e1a8000080fa000000060063
:104910000000fa00d321a900910e8000f03f2f0083
:1049200000806000900e8800d3e1a900d2e1a900c8
:10493000d301a900fa01a900fa21a900fa61a9008e
:10494000fa41a900fb01a900fb21a900fb61a90014
:10495000fb41a9000080fa00000006000000fa00f8
:10496000fae1a800fbe1a8000080fa0000000600c0
:104970000000fa0001448000f0f82f000080600081
:104980000060a000004488003028a8000144800096
:10499000f08f2f000080600000a0a000004488007d
:1049a0003048a80001448000f0ff2800008060002b
:1049b00000e0a000004488003068a8000080fa00f1
:1049c000000006000000fa00c00e800061006000d8
:1049d0000000e0000a003a00208b8000d00e880022
:1049e000308b8000e00e8800408b8000f00e880045
:1049f000508b8000000f8800608b8000100f8800b3
:104a00000080fa00000006000000fa00c00e8000de
:104a1000620060000000e00008003200200f80000b
:104a2000d08a8800300f8000e08a8800400f800024
:104a3000f08a8800500f8000008b88000080fa0008
:104a4000000006000000fa0013fe07004afb070002
:104a50000dfc070065fb070026fc070004ff0700ac
:104a6000abff0700bdff0700c1ff07001dfd0700ea
:104a70009dfd070073ff0700a1ff0700b6fe0700ba
:104a80006dfe070098fe0700a9fe0700d2fe070092
:104a9000b9fe0700ccfe0700ecfe0700d1fd0700c1
:104aa00095fd0700c9fd0700e9fd0700f1fd0700be
:104ab00057f8070071f80700e1fa0700affb07009d
:044ac000fdff3700bf
:020000040000fa
:104ac4006e11000040000000800000000010000093
:104ad4000a000000800000000a100000020000002c
:104ae40082000000ffff00000c10000062010000c3
:084af40080000000000000003a
:020000040000fa
:104afc000200fa002be8a90081818000010f7800e8
:104b0c002be8a8001e0078000080fa0000000600c8
:104b1c000200fa00000f78009e0078005180880097
:044b2c00ffff370050
:020000040000fa
:020000040001f9
:045e0000ffff0000a0
:020000040000fa
:020000040001f9
:045e300078ffff00f8
:020000040000fa
:020000040001f9
:045e38007be3ff0009
:020000040000fa
:020000040001f9
:045e4000f450ff001b
:020000040000fa
:020000040001f9
:045e5000ddffff0073
:020000040000fa
:020000040001f9
:045e58000000ff0047
:020000040000fa
:020000040001f9
:045e60000000ff003f
:020000040000fa
:020000040001f9
:045e68000000ff0037
:020000040000fa
:020000040001f9
:045e70000000ff002f
:020000040000fa
:020000040001f9
:045e7800ffffff0029
:020000040000fa
:020000040001f9
:045e8000fffbff0025
:020000040000fa
:020000040001f9
:045e8800ffffff0019
:020000040000fa
:020000040001f9
:045e9000e003ff002c
:020000040000fa
:020000040001f9
:045e980094ffff0074
:020000040000fa
:020000040001f9
:045ea000ffffff0001
:020000040000fa
:020000040001f9
:045ea800fcffff00fc
:020000040000fa
:020000040001f9
:045eb000f9ffff00f7
:020000040000fa
:020000040001f9
:045ec000fcf0ff00f3
:020000040000fa
:020000040001f9
:045f000078ffff0027
:020000040000fa
:020000040001f9
:045f08007bffff001c
:020000040000fa
:020000040001f9
:045f1000f450ff004a
:020000040000fa
:020000040001f9
:045f2000fddfff00a2
:020000040000fa
:020000040001f9
:045f2800ffffff0078
:020000040000fa
:020000040001f9
:045f3000ffffff0070
:00000001FF
